{
  "contractName": "MKNFTToken",
  "abi": [
    {
      "inputs": [],
      "stateMutability": "nonpayable",
      "type": "constructor"
    },
    {
      "anonymous": false,
      "inputs": [
        {
          "indexed": true,
          "internalType": "address",
          "name": "owner",
          "type": "address"
        },
        {
          "indexed": true,
          "internalType": "address",
          "name": "approved",
          "type": "address"
        },
        {
          "indexed": true,
          "internalType": "uint256",
          "name": "tokenId",
          "type": "uint256"
        }
      ],
      "name": "Approval",
      "type": "event"
    },
    {
      "anonymous": false,
      "inputs": [
        {
          "indexed": true,
          "internalType": "address",
          "name": "owner",
          "type": "address"
        },
        {
          "indexed": true,
          "internalType": "address",
          "name": "operator",
          "type": "address"
        },
        {
          "indexed": false,
          "internalType": "bool",
          "name": "approved",
          "type": "bool"
        }
      ],
      "name": "ApprovalForAll",
      "type": "event"
    },
    {
      "anonymous": false,
      "inputs": [
        {
          "indexed": true,
          "internalType": "address",
          "name": "from",
          "type": "address"
        },
        {
          "indexed": true,
          "internalType": "address",
          "name": "to",
          "type": "address"
        },
        {
          "indexed": true,
          "internalType": "uint256",
          "name": "tokenId",
          "type": "uint256"
        }
      ],
      "name": "Transfer",
      "type": "event"
    },
    {
      "inputs": [
        {
          "internalType": "uint256",
          "name": "",
          "type": "uint256"
        }
      ],
      "name": "Items",
      "outputs": [
        {
          "internalType": "uint256",
          "name": "id",
          "type": "uint256"
        },
        {
          "internalType": "address",
          "name": "creator",
          "type": "address"
        },
        {
          "internalType": "string",
          "name": "uri",
          "type": "string"
        }
      ],
      "stateMutability": "view",
      "type": "function"
    },
    {
      "inputs": [
        {
          "internalType": "address",
          "name": "to",
          "type": "address"
        },
        {
          "internalType": "uint256",
          "name": "tokenId",
          "type": "uint256"
        }
      ],
      "name": "approve",
      "outputs": [],
      "stateMutability": "nonpayable",
      "type": "function"
    },
    {
      "inputs": [
        {
          "internalType": "address",
          "name": "owner",
          "type": "address"
        }
      ],
      "name": "balanceOf",
      "outputs": [
        {
          "internalType": "uint256",
          "name": "",
          "type": "uint256"
        }
      ],
      "stateMutability": "view",
      "type": "function"
    },
    {
      "inputs": [
        {
          "internalType": "uint256",
          "name": "tokenId",
          "type": "uint256"
        }
      ],
      "name": "getApproved",
      "outputs": [
        {
          "internalType": "address",
          "name": "",
          "type": "address"
        }
      ],
      "stateMutability": "view",
      "type": "function"
    },
    {
      "inputs": [
        {
          "internalType": "address",
          "name": "owner",
          "type": "address"
        },
        {
          "internalType": "address",
          "name": "operator",
          "type": "address"
        }
      ],
      "name": "isApprovedForAll",
      "outputs": [
        {
          "internalType": "bool",
          "name": "",
          "type": "bool"
        }
      ],
      "stateMutability": "view",
      "type": "function"
    },
    {
      "inputs": [],
      "name": "name",
      "outputs": [
        {
          "internalType": "string",
          "name": "",
          "type": "string"
        }
      ],
      "stateMutability": "view",
      "type": "function"
    },
    {
      "inputs": [
        {
          "internalType": "uint256",
          "name": "tokenId",
          "type": "uint256"
        }
      ],
      "name": "ownerOf",
      "outputs": [
        {
          "internalType": "address",
          "name": "",
          "type": "address"
        }
      ],
      "stateMutability": "view",
      "type": "function"
    },
    {
      "inputs": [
        {
          "internalType": "address",
          "name": "from",
          "type": "address"
        },
        {
          "internalType": "address",
          "name": "to",
          "type": "address"
        },
        {
          "internalType": "uint256",
          "name": "tokenId",
          "type": "uint256"
        }
      ],
      "name": "safeTransferFrom",
      "outputs": [],
      "stateMutability": "nonpayable",
      "type": "function"
    },
    {
      "inputs": [
        {
          "internalType": "address",
          "name": "from",
          "type": "address"
        },
        {
          "internalType": "address",
          "name": "to",
          "type": "address"
        },
        {
          "internalType": "uint256",
          "name": "tokenId",
          "type": "uint256"
        },
        {
          "internalType": "bytes",
          "name": "_data",
          "type": "bytes"
        }
      ],
      "name": "safeTransferFrom",
      "outputs": [],
      "stateMutability": "nonpayable",
      "type": "function"
    },
    {
      "inputs": [
        {
          "internalType": "address",
          "name": "operator",
          "type": "address"
        },
        {
          "internalType": "bool",
          "name": "approved",
          "type": "bool"
        }
      ],
      "name": "setApprovalForAll",
      "outputs": [],
      "stateMutability": "nonpayable",
      "type": "function"
    },
    {
      "inputs": [
        {
          "internalType": "bytes4",
          "name": "interfaceId",
          "type": "bytes4"
        }
      ],
      "name": "supportsInterface",
      "outputs": [
        {
          "internalType": "bool",
          "name": "",
          "type": "bool"
        }
      ],
      "stateMutability": "view",
      "type": "function"
    },
    {
      "inputs": [],
      "name": "symbol",
      "outputs": [
        {
          "internalType": "string",
          "name": "",
          "type": "string"
        }
      ],
      "stateMutability": "view",
      "type": "function"
    },
    {
      "inputs": [
        {
          "internalType": "address",
          "name": "from",
          "type": "address"
        },
        {
          "internalType": "address",
          "name": "to",
          "type": "address"
        },
        {
          "internalType": "uint256",
          "name": "tokenId",
          "type": "uint256"
        }
      ],
      "name": "transferFrom",
      "outputs": [],
      "stateMutability": "nonpayable",
      "type": "function"
    },
    {
      "inputs": [
        {
          "internalType": "string",
          "name": "uri",
          "type": "string"
        }
      ],
      "name": "createItem",
      "outputs": [
        {
          "internalType": "uint256",
          "name": "",
          "type": "uint256"
        }
      ],
      "stateMutability": "nonpayable",
      "type": "function"
    },
    {
      "inputs": [
        {
          "internalType": "uint256",
          "name": "tokenId",
          "type": "uint256"
        }
      ],
      "name": "tokenURI",
      "outputs": [
        {
          "internalType": "string",
          "name": "",
          "type": "string"
        }
      ],
      "stateMutability": "view",
      "type": "function"
    }
  ],
  "bytecode": "0x60806040523480156200001157600080fd5b506040518060400160405280600a81526020017f4d4b4e4654546f6b656e000000000000000000000000000000000000000000008152506040518060400160405280600581526020017f4d4b4e4654000000000000000000000000000000000000000000000000000000815250816000908051906020019062000096929190620000b8565b508060019080519060200190620000af929190620000b8565b505050620001cd565b828054620000c69062000197565b90600052602060002090601f016020900481019282620000ea576000855562000136565b82601f106200010557805160ff191683800117855562000136565b8280016001018555821562000136579182015b828111156200013557825182559160200191906001019062000118565b5b50905062000145919062000149565b5090565b5b80821115620001645760008160009055506001016200014a565b5090565b7f4e487b7100000000000000000000000000000000000000000000000000000000600052602260045260246000fd5b60006002820490506001821680620001b057607f821691505b60208210811415620001c757620001c662000168565b5b50919050565b61289d80620001dd6000396000f3fe608060405234801561001057600080fd5b50600436106100f55760003560e01c806342842e0e11610097578063a22cb46511610066578063a22cb465146102ac578063b88d4fde146102c8578063c87b56dd146102e4578063e985e9c514610314576100f5565b806342842e0e146102125780636352211e1461022e57806370a082311461025e57806395d89b411461028e576100f5565b8063095ea7b3116100d3578063095ea7b31461017857806317b47cc41461019457806323b872dd146101c65780633d54eebb146101e2576100f5565b806301ffc9a7146100fa57806306fdde031461012a578063081812fc14610148575b600080fd5b610114600480360381019061010f9190611861565b610344565b60405161012191906118a9565b60405180910390f35b610132610426565b60405161013f919061195d565b60405180910390f35b610162600480360381019061015d91906119b5565b6104b8565b60405161016f9190611a23565b60405180910390f35b610192600480360381019061018d9190611a6a565b61053d565b005b6101ae60048036038101906101a991906119b5565b610655565b6040516101bd93929190611ab9565b60405180910390f35b6101e060048036038101906101db9190611af7565b610727565b005b6101fc60048036038101906101f79190611c7f565b610787565b6040516102099190611cc8565b60405180910390f35b61022c60048036038101906102279190611af7565b610869565b005b610248600480360381019061024391906119b5565b610889565b6040516102559190611a23565b60405180910390f35b61027860048036038101906102739190611ce3565b61093b565b6040516102859190611cc8565b60405180910390f35b6102966109f3565b6040516102a3919061195d565b60405180910390f35b6102c660048036038101906102c19190611d3c565b610a85565b005b6102e260048036038101906102dd9190611e1d565b610a9b565b005b6102fe60048036038101906102f991906119b5565b610afd565b60405161030b919061195d565b60405180910390f35b61032e60048036038101906103299190611ea0565b610bed565b60405161033b91906118a9565b60405180910390f35b60007f80ac58cd000000000000000000000000000000000000000000000000000000007bffffffffffffffffffffffffffffffffffffffffffffffffffffffff1916827bffffffffffffffffffffffffffffffffffffffffffffffffffffffff1916148061040f57507f5b5e139f000000000000000000000000000000000000000000000000000000007bffffffffffffffffffffffffffffffffffffffffffffffffffffffff1916827bffffffffffffffffffffffffffffffffffffffffffffffffffffffff1916145b8061041f575061041e82610c81565b5b9050919050565b60606000805461043590611f0f565b80601f016020809104026020016040519081016040528092919081815260200182805461046190611f0f565b80156104ae5780601f10610483576101008083540402835291602001916104ae565b820191906000526020600020905b81548152906001019060200180831161049157829003601f168201915b5050505050905090565b60006104c382610ceb565b610502576040517f08c379a00000000000000000000000000000000000000000000000000000000081526004016104f990611fb3565b60405180910390fd5b6004600083815260200190815260200160002060009054906101000a900473ffffffffffffffffffffffffffffffffffffffff169050919050565b600061054882610889565b90508073ffffffffffffffffffffffffffffffffffffffff168373ffffffffffffffffffffffffffffffffffffffff1614156105b9576040517f08c379a00000000000000000000000000000000000000000000000000000000081526004016105b090612045565b60405180910390fd5b8073ffffffffffffffffffffffffffffffffffffffff166105d8610d57565b73ffffffffffffffffffffffffffffffffffffffff161480610607575061060681610601610d57565b610bed565b5b610646576040517f08c379a000000000000000000000000000000000000000000000000000000000815260040161063d906120d7565b60405180910390fd5b6106508383610d5f565b505050565b60076020528060005260406000206000915090508060000154908060010160009054906101000a900473ffffffffffffffffffffffffffffffffffffffff16908060020180546106a490611f0f565b80601f01602080910402602001604051908101604052809291908181526020018280546106d090611f0f565b801561071d5780601f106106f25761010080835404028352916020019161071d565b820191906000526020600020905b81548152906001019060200180831161070057829003601f168201915b5050505050905083565b610738610732610d57565b82610e18565b610777576040517f08c379a000000000000000000000000000000000000000000000000000000000815260040161076e90612169565b60405180910390fd5b610782838383610ef6565b505050565b6000610793600661115d565b600061079f6006611173565b90506107ab3382611181565b60405180606001604052808281526020013373ffffffffffffffffffffffffffffffffffffffff16815260200184815250600760008381526020019081526020016000206000820151816000015560208201518160010160006101000a81548173ffffffffffffffffffffffffffffffffffffffff021916908373ffffffffffffffffffffffffffffffffffffffff160217905550604082015181600201908051906020019061085c929190611752565b5090505080915050919050565b61088483838360405180602001604052806000815250610a9b565b505050565b6000806002600084815260200190815260200160002060009054906101000a900473ffffffffffffffffffffffffffffffffffffffff169050600073ffffffffffffffffffffffffffffffffffffffff168173ffffffffffffffffffffffffffffffffffffffff161415610932576040517f08c379a0000000000000000000000000000000000000000000000000000000008152600401610929906121fb565b60405180910390fd5b80915050919050565b60008073ffffffffffffffffffffffffffffffffffffffff168273ffffffffffffffffffffffffffffffffffffffff1614156109ac576040517f08c379a00000000000000000000000000000000000000000000000000000000081526004016109a39061228d565b60405180910390fd5b600360008373ffffffffffffffffffffffffffffffffffffffff1673ffffffffffffffffffffffffffffffffffffffff168152602001908152602001600020549050919050565b606060018054610a0290611f0f565b80601f0160208091040260200160405190810160405280929190818152602001828054610a2e90611f0f565b8015610a7b5780601f10610a5057610100808354040283529160200191610a7b565b820191906000526020600020905b815481529060010190602001808311610a5e57829003601f168201915b5050505050905090565b610a97610a90610d57565b838361119f565b5050565b610aac610aa6610d57565b83610e18565b610aeb576040517f08c379a0000000000000000000000000000000000000000000000000000000008152600401610ae290612169565b60405180910390fd5b610af78484848461130c565b50505050565b6060610b0882610ceb565b610b47576040517f08c379a0000000000000000000000000000000000000000000000000000000008152600401610b3e9061231f565b60405180910390fd5b600760008381526020019081526020016000206002018054610b6890611f0f565b80601f0160208091040260200160405190810160405280929190818152602001828054610b9490611f0f565b8015610be15780601f10610bb657610100808354040283529160200191610be1565b820191906000526020600020905b815481529060010190602001808311610bc457829003601f168201915b50505050509050919050565b6000600560008473ffffffffffffffffffffffffffffffffffffffff1673ffffffffffffffffffffffffffffffffffffffff16815260200190815260200160002060008373ffffffffffffffffffffffffffffffffffffffff1673ffffffffffffffffffffffffffffffffffffffff16815260200190815260200160002060009054906101000a900460ff16905092915050565b60007f01ffc9a7000000000000000000000000000000000000000000000000000000007bffffffffffffffffffffffffffffffffffffffffffffffffffffffff1916827bffffffffffffffffffffffffffffffffffffffffffffffffffffffff1916149050919050565b60008073ffffffffffffffffffffffffffffffffffffffff166002600084815260200190815260200160002060009054906101000a900473ffffffffffffffffffffffffffffffffffffffff1673ffffffffffffffffffffffffffffffffffffffff1614159050919050565b600033905090565b816004600083815260200190815260200160002060006101000a81548173ffffffffffffffffffffffffffffffffffffffff021916908373ffffffffffffffffffffffffffffffffffffffff160217905550808273ffffffffffffffffffffffffffffffffffffffff16610dd283610889565b73ffffffffffffffffffffffffffffffffffffffff167f8c5be1e5ebec7d5bd14f71427d1e84f3dd0314c0f7b2291e5b200ac8c7c3b92560405160405180910390a45050565b6000610e2382610ceb565b610e62576040517f08c379a0000000000000000000000000000000000000000000000000000000008152600401610e59906123b1565b60405180910390fd5b6000610e6d83610889565b90508073ffffffffffffffffffffffffffffffffffffffff168473ffffffffffffffffffffffffffffffffffffffff161480610edc57508373ffffffffffffffffffffffffffffffffffffffff16610ec4846104b8565b73ffffffffffffffffffffffffffffffffffffffff16145b80610eed5750610eec8185610bed565b5b91505092915050565b8273ffffffffffffffffffffffffffffffffffffffff16610f1682610889565b73ffffffffffffffffffffffffffffffffffffffff1614610f6c576040517f08c379a0000000000000000000000000000000000000000000000000000000008152600401610f6390612443565b60405180910390fd5b600073ffffffffffffffffffffffffffffffffffffffff168273ffffffffffffffffffffffffffffffffffffffff161415610fdc576040517f08c379a0000000000000000000000000000000000000000000000000000000008152600401610fd3906124d5565b60405180910390fd5b610fe7838383611368565b610ff2600082610d5f565b6001600360008573ffffffffffffffffffffffffffffffffffffffff1673ffffffffffffffffffffffffffffffffffffffff16815260200190815260200160002060008282546110429190612524565b925050819055506001600360008473ffffffffffffffffffffffffffffffffffffffff1673ffffffffffffffffffffffffffffffffffffffff16815260200190815260200160002060008282546110999190612558565b92505081905550816002600083815260200190815260200160002060006101000a81548173ffffffffffffffffffffffffffffffffffffffff021916908373ffffffffffffffffffffffffffffffffffffffff160217905550808273ffffffffffffffffffffffffffffffffffffffff168473ffffffffffffffffffffffffffffffffffffffff167fddf252ad1be2c89b69c2b068fc378daa952ba7f163c4a11628f55a4df523b3ef60405160405180910390a461115883838361136d565b505050565b6001816000016000828254019250508190555050565b600081600001549050919050565b61119b828260405180602001604052806000815250611372565b5050565b8173ffffffffffffffffffffffffffffffffffffffff168373ffffffffffffffffffffffffffffffffffffffff16141561120e576040517f08c379a0000000000000000000000000000000000000000000000000000000008152600401611205906125fa565b60405180910390fd5b80600560008573ffffffffffffffffffffffffffffffffffffffff1673ffffffffffffffffffffffffffffffffffffffff16815260200190815260200160002060008473ffffffffffffffffffffffffffffffffffffffff1673ffffffffffffffffffffffffffffffffffffffff16815260200190815260200160002060006101000a81548160ff0219169083151502179055508173ffffffffffffffffffffffffffffffffffffffff168373ffffffffffffffffffffffffffffffffffffffff167f17307eab39ab6107e8899845ad3d59bd9653f200f220920489ca2b5937696c31836040516112ff91906118a9565b60405180910390a3505050565b611317848484610ef6565b611323848484846113cd565b611362576040517f08c379a00000000000000000000000000000000000000000000000000000000081526004016113599061268c565b60405180910390fd5b50505050565b505050565b505050565b61137c8383611555565b61138960008484846113cd565b6113c8576040517f08c379a00000000000000000000000000000000000000000000000000000000081526004016113bf9061268c565b60405180910390fd5b505050565b60006113ee8473ffffffffffffffffffffffffffffffffffffffff1661172f565b15611548578373ffffffffffffffffffffffffffffffffffffffff1663150b7a02611417610d57565b8786866040518563ffffffff1660e01b81526004016114399493929190612701565b6020604051808303816000875af192505050801561147557506040513d601f19601f820116820180604052508101906114729190612762565b60015b6114f8573d80600081146114a5576040519150601f19603f3d011682016040523d82523d6000602084013e6114aa565b606091505b506000815114156114f0576040517f08c379a00000000000000000000000000000000000000000000000000000000081526004016114e79061268c565b60405180910390fd5b805181602001fd5b63150b7a0260e01b7bffffffffffffffffffffffffffffffffffffffffffffffffffffffff1916817bffffffffffffffffffffffffffffffffffffffffffffffffffffffff19161491505061154d565b600190505b949350505050565b600073ffffffffffffffffffffffffffffffffffffffff168273ffffffffffffffffffffffffffffffffffffffff1614156115c5576040517f08c379a00000000000000000000000000000000000000000000000000000000081526004016115bc906127db565b60405180910390fd5b6115ce81610ceb565b1561160e576040517f08c379a000000000000000000000000000000000000000000000000000000000815260040161160590612847565b60405180910390fd5b61161a60008383611368565b6001600360008473ffffffffffffffffffffffffffffffffffffffff1673ffffffffffffffffffffffffffffffffffffffff168152602001908152602001600020600082825461166a9190612558565b92505081905550816002600083815260200190815260200160002060006101000a81548173ffffffffffffffffffffffffffffffffffffffff021916908373ffffffffffffffffffffffffffffffffffffffff160217905550808273ffffffffffffffffffffffffffffffffffffffff16600073ffffffffffffffffffffffffffffffffffffffff167fddf252ad1be2c89b69c2b068fc378daa952ba7f163c4a11628f55a4df523b3ef60405160405180910390a461172b6000838361136d565b5050565b6000808273ffffffffffffffffffffffffffffffffffffffff163b119050919050565b82805461175e90611f0f565b90600052602060002090601f01602090048101928261178057600085556117c7565b82601f1061179957805160ff19168380011785556117c7565b828001600101855582156117c7579182015b828111156117c65782518255916020019190600101906117ab565b5b5090506117d491906117d8565b5090565b5b808211156117f15760008160009055506001016117d9565b5090565b6000604051905090565b600080fd5b600080fd5b60007fffffffff0000000000000000000000000000000000000000000000000000000082169050919050565b61183e81611809565b811461184957600080fd5b50565b60008135905061185b81611835565b92915050565b600060208284031215611877576118766117ff565b5b60006118858482850161184c565b91505092915050565b60008115159050919050565b6118a38161188e565b82525050565b60006020820190506118be600083018461189a565b92915050565b600081519050919050565b600082825260208201905092915050565b60005b838110156118fe5780820151818401526020810190506118e3565b8381111561190d576000848401525b50505050565b6000601f19601f8301169050919050565b600061192f826118c4565b61193981856118cf565b93506119498185602086016118e0565b61195281611913565b840191505092915050565b600060208201905081810360008301526119778184611924565b905092915050565b6000819050919050565b6119928161197f565b811461199d57600080fd5b50565b6000813590506119af81611989565b92915050565b6000602082840312156119cb576119ca6117ff565b5b60006119d9848285016119a0565b91505092915050565b600073ffffffffffffffffffffffffffffffffffffffff82169050919050565b6000611a0d826119e2565b9050919050565b611a1d81611a02565b82525050565b6000602082019050611a386000830184611a14565b92915050565b611a4781611a02565b8114611a5257600080fd5b50565b600081359050611a6481611a3e565b92915050565b60008060408385031215611a8157611a806117ff565b5b6000611a8f85828601611a55565b9250506020611aa0858286016119a0565b9150509250929050565b611ab38161197f565b82525050565b6000606082019050611ace6000830186611aaa565b611adb6020830185611a14565b8181036040830152611aed8184611924565b9050949350505050565b600080600060608486031215611b1057611b0f6117ff565b5b6000611b1e86828701611a55565b9350506020611b2f86828701611a55565b9250506040611b40868287016119a0565b9150509250925092565b600080fd5b600080fd5b7f4e487b7100000000000000000000000000000000000000000000000000000000600052604160045260246000fd5b611b8c82611913565b810181811067ffffffffffffffff82111715611bab57611baa611b54565b5b80604052505050565b6000611bbe6117f5565b9050611bca8282611b83565b919050565b600067ffffffffffffffff821115611bea57611be9611b54565b5b611bf382611913565b9050602081019050919050565b82818337600083830152505050565b6000611c22611c1d84611bcf565b611bb4565b905082815260208101848484011115611c3e57611c3d611b4f565b5b611c49848285611c00565b509392505050565b600082601f830112611c6657611c65611b4a565b5b8135611c76848260208601611c0f565b91505092915050565b600060208284031215611c9557611c946117ff565b5b600082013567ffffffffffffffff811115611cb357611cb2611804565b5b611cbf84828501611c51565b91505092915050565b6000602082019050611cdd6000830184611aaa565b92915050565b600060208284031215611cf957611cf86117ff565b5b6000611d0784828501611a55565b91505092915050565b611d198161188e565b8114611d2457600080fd5b50565b600081359050611d3681611d10565b92915050565b60008060408385031215611d5357611d526117ff565b5b6000611d6185828601611a55565b9250506020611d7285828601611d27565b9150509250929050565b600067ffffffffffffffff821115611d9757611d96611b54565b5b611da082611913565b9050602081019050919050565b6000611dc0611dbb84611d7c565b611bb4565b905082815260208101848484011115611ddc57611ddb611b4f565b5b611de7848285611c00565b509392505050565b600082601f830112611e0457611e03611b4a565b5b8135611e14848260208601611dad565b91505092915050565b60008060008060808587031215611e3757611e366117ff565b5b6000611e4587828801611a55565b9450506020611e5687828801611a55565b9350506040611e67878288016119a0565b925050606085013567ffffffffffffffff811115611e8857611e87611804565b5b611e9487828801611def565b91505092959194509250565b60008060408385031215611eb757611eb66117ff565b5b6000611ec585828601611a55565b9250506020611ed685828601611a55565b9150509250929050565b7f4e487b7100000000000000000000000000000000000000000000000000000000600052602260045260246000fd5b60006002820490506001821680611f2757607f821691505b60208210811415611f3b57611f3a611ee0565b5b50919050565b7f4552433732313a20617070726f76656420717565727920666f72206e6f6e657860008201527f697374656e7420746f6b656e0000000000000000000000000000000000000000602082015250565b6000611f9d602c836118cf565b9150611fa882611f41565b604082019050919050565b60006020820190508181036000830152611fcc81611f90565b9050919050565b7f4552433732313a20617070726f76616c20746f2063757272656e74206f776e6560008201527f7200000000000000000000000000000000000000000000000000000000000000602082015250565b600061202f6021836118cf565b915061203a82611fd3565b604082019050919050565b6000602082019050818103600083015261205e81612022565b9050919050565b7f4552433732313a20617070726f76652063616c6c6572206973206e6f74206f7760008201527f6e6572206e6f7220617070726f76656420666f7220616c6c0000000000000000602082015250565b60006120c16038836118cf565b91506120cc82612065565b604082019050919050565b600060208201905081810360008301526120f0816120b4565b9050919050565b7f4552433732313a207472616e736665722063616c6c6572206973206e6f74206f60008201527f776e6572206e6f7220617070726f766564000000000000000000000000000000602082015250565b60006121536031836118cf565b915061215e826120f7565b604082019050919050565b6000602082019050818103600083015261218281612146565b9050919050565b7f4552433732313a206f776e657220717565727920666f72206e6f6e657869737460008201527f656e7420746f6b656e0000000000000000000000000000000000000000000000602082015250565b60006121e56029836118cf565b91506121f082612189565b604082019050919050565b60006020820190508181036000830152612214816121d8565b9050919050565b7f4552433732313a2062616c616e636520717565727920666f7220746865207a6560008201527f726f206164647265737300000000000000000000000000000000000000000000602082015250565b6000612277602a836118cf565b91506122828261221b565b604082019050919050565b600060208201905081810360008301526122a68161226a565b9050919050565b7f4552433732314d657461646174613a2055524920717565727920666f72206e6f60008201527f6e6578697374656e7420746f6b656e0000000000000000000000000000000000602082015250565b6000612309602f836118cf565b9150612314826122ad565b604082019050919050565b60006020820190508181036000830152612338816122fc565b9050919050565b7f4552433732313a206f70657261746f7220717565727920666f72206e6f6e657860008201527f697374656e7420746f6b656e0000000000000000000000000000000000000000602082015250565b600061239b602c836118cf565b91506123a68261233f565b604082019050919050565b600060208201905081810360008301526123ca8161238e565b9050919050565b7f4552433732313a207472616e736665722066726f6d20696e636f72726563742060008201527f6f776e6572000000000000000000000000000000000000000000000000000000602082015250565b600061242d6025836118cf565b9150612438826123d1565b604082019050919050565b6000602082019050818103600083015261245c81612420565b9050919050565b7f4552433732313a207472616e7366657220746f20746865207a65726f2061646460008201527f7265737300000000000000000000000000000000000000000000000000000000602082015250565b60006124bf6024836118cf565b91506124ca82612463565b604082019050919050565b600060208201905081810360008301526124ee816124b2565b9050919050565b7f4e487b7100000000000000000000000000000000000000000000000000000000600052601160045260246000fd5b600061252f8261197f565b915061253a8361197f565b92508282101561254d5761254c6124f5565b5b828203905092915050565b60006125638261197f565b915061256e8361197f565b9250827fffffffffffffffffffffffffffffffffffffffffffffffffffffffffffffffff038211156125a3576125a26124f5565b5b828201905092915050565b7f4552433732313a20617070726f766520746f2063616c6c657200000000000000600082015250565b60006125e46019836118cf565b91506125ef826125ae565b602082019050919050565b60006020820190508181036000830152612613816125d7565b9050919050565b7f4552433732313a207472616e7366657220746f206e6f6e20455243373231526560008201527f63656976657220696d706c656d656e7465720000000000000000000000000000602082015250565b60006126766032836118cf565b91506126818261261a565b604082019050919050565b600060208201905081810360008301526126a581612669565b9050919050565b600081519050919050565b600082825260208201905092915050565b60006126d3826126ac565b6126dd81856126b7565b93506126ed8185602086016118e0565b6126f681611913565b840191505092915050565b60006080820190506127166000830187611a14565b6127236020830186611a14565b6127306040830185611aaa565b818103606083015261274281846126c8565b905095945050505050565b60008151905061275c81611835565b92915050565b600060208284031215612778576127776117ff565b5b60006127868482850161274d565b91505092915050565b7f4552433732313a206d696e7420746f20746865207a65726f2061646472657373600082015250565b60006127c56020836118cf565b91506127d08261278f565b602082019050919050565b600060208201905081810360008301526127f4816127b8565b9050919050565b7f4552433732313a20746f6b656e20616c7265616479206d696e74656400000000600082015250565b6000612831601c836118cf565b915061283c826127fb565b602082019050919050565b6000602082019050818103600083015261286081612824565b905091905056fea2646970667358221220dbadd6d4ed84a89f8d526de70ce8a646169964f8daad5566ba082ea5b8e071a464736f6c634300080c0033",
  "immutableReferences": {},
  "source": "pragma solidity ^0.8.0;\r\n\r\nimport \"../node_modules/@openzeppelin/contracts/token/ERC721/ERC721.sol\";\r\nimport \"../node_modules/@openzeppelin/contracts/utils/Counters.sol\";\r\n\r\ncontract MKNFTToken is ERC721 {\r\n    using Counters for Counters.Counter;\r\n    Counters.Counter private _tokenIds;\r\n\r\n    constructor () ERC721(\"MKNFTToken\", \"MKNFT\"){}\r\n\r\n    struct Item {\r\n        uint256 id;\r\n        address creator;\r\n        string uri;\r\n    }\r\n\r\n    mapping (uint256 => Item) public Items;\r\n\r\n    function createItem(string memory uri) public returns (uint256){\r\n        _tokenIds.increment();\r\n        uint256 newItemId = _tokenIds.current();\r\n        _safeMint(msg.sender, newItemId);\r\n\r\n        Items[newItemId] = Item(newItemId, msg.sender, uri);\r\n\r\n        return newItemId;\r\n    }\r\n\r\n    function tokenURI(uint256 tokenId) public view override returns (string memory) {\r\n        require(_exists(tokenId), \"ERC721Metadata: URI query for nonexistent token\");\r\n\r\n       return Items[tokenId].uri;\r\n    }\r\n}",
  "sourcePath": "D:\\MSc computing\\Msc final project\\MKNFTZ-MARKETPLACE\\contracts\\MKNFTToken.sol",
  "compiler": {
    "name": "solc",
    "version": "0.8.12+commit.f00d7308.Emscripten.clang"
  },
  "schemaVersion": "3.4.5",
  "updatedAt": "2022-03-08T11:44:45.552Z",
  "devdoc": {
    "kind": "dev",
    "methods": {
      "approve(address,uint256)": {
        "details": "See {IERC721-approve}."
      },
      "balanceOf(address)": {
        "details": "See {IERC721-balanceOf}."
      },
      "getApproved(uint256)": {
        "details": "See {IERC721-getApproved}."
      },
      "isApprovedForAll(address,address)": {
        "details": "See {IERC721-isApprovedForAll}."
      },
      "name()": {
        "details": "See {IERC721Metadata-name}."
      },
      "ownerOf(uint256)": {
        "details": "See {IERC721-ownerOf}."
      },
      "safeTransferFrom(address,address,uint256)": {
        "details": "See {IERC721-safeTransferFrom}."
      },
      "safeTransferFrom(address,address,uint256,bytes)": {
        "details": "See {IERC721-safeTransferFrom}."
      },
      "setApprovalForAll(address,bool)": {
        "details": "See {IERC721-setApprovalForAll}."
      },
      "supportsInterface(bytes4)": {
        "details": "See {IERC165-supportsInterface}."
      },
      "symbol()": {
        "details": "See {IERC721Metadata-symbol}."
      },
      "tokenURI(uint256)": {
        "details": "See {IERC721Metadata-tokenURI}."
      },
      "transferFrom(address,address,uint256)": {
        "details": "See {IERC721-transferFrom}."
      }
    },
    "version": 1
  },
  "userdoc": {
    "kind": "user",
    "methods": {},
    "version": 1
  }
}